:100000000C947A000C9400000C9400000C940000F6
:100010000C9400000C9400000C94BB020C940000A3
:100020000C9400000C9400000C9400000C94000050
:100030000C9400000C9400000C9400000C94000040
:100040000C9400000C9400000C9400000C94000030
:100050000C9400001027E80364000A00010000105F
:100060000001100001006009401F536572766F2087
:10007000313A2025336400536572766F20323A207E
:1000800025336400536572766F20333A202533643C
:1000900000536572766F20343A202533640053652F
:1000A00072766F20353A2025336400536572766F7F
:1000B00020363A2025336400536572766F20373A34
:1000C0002025336400536572766F20383A2025333B
:1000D00064004D656E676972696D2E2E2E0080C0BA
:1000E0000400040066000C006001D20002009C01C4
:1000F000DE000000F894EE27ECBBF1E0FBBFEBBFA5
:10010000E5BFF8E1F1BDE1BD8DE0A2E0BB27ED93D5
:100110008A95E9F780E094E0A0E6ED930197E9F78E
:10012000E0EEF0E085919591009761F0A591B59191
:1001300005901590BF01F00105900D920197E1F730
:10014000FB01F0CFEFE5EDBFE4E0EEBFC0E6D1E0AC
:100150000C944B04BA93AA931A930A93EA81FB81F5
:10016000662777270E946209ACE1B7EC81E392E44D
:100170000E94E509A0E0B0E08AEF95E40E949509AD
:100180000E942B098F011981088124960895AA24C1
:10019000BB24E4E0F0E0AE16BF060CF0EBC1E0EFEC
:1001A000E5BB0A2C0B2811F4E7E00EC00E941A07E9
:1001B00011F4EBE009C00E941F0711F4EDE004C048
:1001C0000E94240711F4EEE0E5BB9F995FC00E94F6
:1001D000EA049F995AC00E94290791F40E943107AE
:1001E00031960E9436070E943B07A53BE0E0BE0720
:1001F0002CF0E0E0E0936C01E0936D010E94400779
:100200000E941A0779F40E94310731970E9436073D
:10021000A0916D01AA2322F4E4EBF0E00E943607DE
:100220000E9440070E941F07A9F40E9459073196B7
:10023000E0936E01F0936F010E945E07A53BE0E042
:10024000BE0714F00E9463070E946A070E947307AA
:100250000E947C070E942407A9F40E945907319745
:10026000E0936E01F0936F01A0916F01AA2322F435
:10027000EEE6F1E00E9483070E946A070E9473077E
:100280000E947C070E948807A4CF3DC19E9968C048
:100290000E94EA049E9963C00E942907A9F40E9463
:1002A00098073196E0937001F09371010E949D07C9
:1002B000A53BE0E0BE0714F00E94A2070E94A90738
:1002C0000E94B2070E94BB070E941A07A9F40E946D
:1002D00098073197E0937001F0937101A09171013B
:1002E000AA2322F4E0E7F1E00E9483070E94A90715
:1002F0000E94B2070E94BB070E941F07A9F40E9438
:10030000C2073196E0937201F09373010E94C70710
:10031000A53BE0E0BE0714F00E94CC070E94D30783
:100320000E94DC070E94E5070E942407A9F40E94AE
:10033000C2073197E0937201F0937301A0917301AA
:10034000AA2322F4E2E7F1E00E9483070E94D30788
:100350000E94DC070E94E5070E9488079BCFD3C05C
:100360009D9968C00E94EA049D9963C00E94290774
:10037000A9F40E94EC073196E0937401F0937501A3
:100380000E94F107A53BE0E0BE0714F00E94F607CB
:100390000E94FD070E9406080E940F080E941A078B
:1003A000A9F40E94EC073197E0937401F093750172
:1003B000A0917501AA2322F4E4E7F1E00E948307EB
:1003C0000E94FD070E9406080E940F080E941F0756
:1003D000A9F40E9416083196E0937601F093770114
:1003E0000E941B08A53BE0E0BE0714F00E94200815
:1003F0000E9427080E9430080E9439080E942407A2
:10040000A9F40E9416083197E0937601F0937701E2
:10041000A0917701AA2322F4E6E7F1E00E94830786
:100420000E9427080E9430080E9439080E9488070D
:100430009BCF69C09C9967C00E94EA049C9963C0E5
:100440000E942907A9F40E9440083196E0937801A0
:10045000F09379010E944508A53BE0E0BE0714F047
:100460000E944A080E9451080E945A080E9463088C
:100470000E941A07A9F40E9440083197E09378017E
:10048000F0937901A0917901AA2322F4E8E7F1E041
:100490000E9483070E9451080E945A080E94630824
:1004A0000E941F07A9F40E946A083196E0937A011E
:1004B000F0937B010E946F08A53BE0E0BE0714F0BB
:1004C0000E9474080E947B080E9484080E948D0884
:1004D0000E942407A9F40E946A083197E0937A01E8
:1004E000F0937B01A0917B01AA2322F4EAE7F1E0DB
:1004F0000E9483070E947B080E9484080E948D0846
:100500000E9488079BCF0E949408A0917C01B09123
:100510007D01AE0FBF1F0E949908EA0FFB1F4F011C
:10052000A0918201B09183010E949E08AE0FBF1F6F
:100530000E94A308EA0FFB1F8E0E9F1EA091880148
:10054000B09189010E94A808EA0FFB1F8E0E9F1E22
:10055000E0EEF4E5E819F9094F01E2E0EA93A1E0E1
:100560000E94D904A0E6B1E00E941805F501319679
:100570005F010FCE08950A92AA93EA93FA93EFB718
:10058000EA93F601309789F4E92DF070EBBD082C61
:10059000092829F0EFEFE03011F0E1E001C0E0E0E0
:1005A000EABDE1E0F0E06F016FC1E130A0E0FA07E1
:1005B00089F4E72DF070EBBD062C072829F0EFEF4A
:1005C000E03011F0E1E001C0E0E0EABDE2E0F0E09F
:1005D0006F015AC1E230A0E0FA07C1F4E0917C015A
:1005E000F0917D010E94430AEBBDE0917C01F09106
:1005F0007D01309729F0EFEFE03011F0E1E001C02C
:10060000E0E0EABDE3E0F0E06F013EC1E330A0E0EE
:10061000FA0771F40E94AD0829F0EFEFE03011F015
:10062000E1E001C0E0E0EABDE4E0F0E06F012CC1F0
:10063000E430A0E0FA07A1F40E9494080E94430A63
:10064000EBBD0E949408309729F0EFEFE03011F0F5
:10065000E1E001C0E0E0EABDE5E0F0E06F0114C1D7
:10066000E530A0E0FA0771F40E94AD0829F0EFEF41
:10067000E03011F0E1E001C0E0E0EABDE6E0F0E0EA
:100680006F0102C1E630A0E0FA07A1F40E949908C8
:100690000E94430AEBBD0E949908309729F0EFEFC2
:1006A000E03011F0E1E001C0E0E0EABDE7E0F0E0B9
:1006B0006F01EAC0E730A0E0FA0771F40E94AD08CC
:1006C00029F0EFEFE03011F0E1E001C0E0E0EABD39
:1006D000E8E0F0E06F01D8C0E830A0E0FA07C1F42C
:1006E000E0918201F09183010E94430AEBBDE09109
:1006F0008201F0918301309729F0EFEFE03011F0A3
:10070000E1E001C0E0E0EABDE9E0F0E06F01BCC07B
:10071000E930A0E0FA0771F40E94AD0829F0EFEF8C
:10072000E03011F0E1E001C0E0E0EABDEAE0F0E035
:100730006F01AAC0EA30A0E0FA07A1F40E949E0867
:100740000E94430AEBBD0E949E08309729F0EFEF0C
:10075000E03011F0E1E001C0E0E0EABDEBE0F0E004
:100760006F0192C0EB30A0E0FA0771F40E94AD086F
:1007700029F0EFEFE03011F0E1E001C0E0E0EABD88
:10078000ECE0F0E06F0180C0EC30A0E0FA07A1F4EB
:100790000E94A3080E94430AEBBD0E94A308309761
:1007A00029F0EFEFE03011F0E1E001C0E0E0EABD58
:1007B000EDE0F0E06F0168C0ED30A0E0FA0771F401
:1007C0000E94AD0829F0EFEFE03011F0E1E001C048
:1007D000E0E0EABDEEE0F0E06F0156C0EE30A0E0F0
:1007E000FA07C1F4E0918801F09189010E94430A5F
:1007F000EBBDE0918801F0918901309729F0EFEF8E
:10080000E03011F0E1E001C0E0E0EABDEFE0F0E04F
:100810006F013AC0EF30A0E0FA0771F40E94AD0812
:1008200029F0EFEFE03011F0E1E001C0E0E0EABDD7
:10083000E0E1F0E06F0128C0E031A0E0FA07A1F4A8
:100840000E94A8080E94430AEBBD0E94A8083097A6
:1008500029F0EFEFE03011F0E1E001C0E0E0EABDA7
:10086000E1E1F0E06F0110C0E131A0E0FA0761F4CE
:100870000E94AD0829F0EFEFE03011F0E1E001C097
:10088000E0E0EABDCC24DD24E991EFBFF991E991E4
:10089000A99109901895E0E0EABBEBBBE7BBE8BB88
:1008A000EFE0E4BBE0EFE5BBE0E3E1BBE0E0E2BBAF
:1008B000E0E5EFBDE9E0EEBDE0E0EDBDECBDE7BD9C
:1008C000E6BDEBBDEABDEEE3E9BDE0E8E8BDE0E191
:1008D000E9BFE0E8E8B9E0E0E0BFA0E1BAD0789491
:1008E000E0E0E0936C01E0936D010E9463070E94D9
:1008F000A2070E94CC070E94F6070E9420080E94CF
:100900004A080E947408E0E8FEE3E0937C01F0935B
:100910007D01EEE7F1E00E94B308E0E8F1E00E941B
:10092000B308E2E8F1E00E94B308E4E8F1E00E94D5
:10093000B308E6E8F1E00E94B308E8E8F1E00E94BD
:10094000B308EAE8F1E00E94B30821DCFECFFFCF54
:10095000AA93E881E07111F0DB9A01C0DB98E8818D
:10096000E07211F0DC9A01C0DC98E881E07411F0CB
:10097000DD9A01C0DD98E881E07811F0DE9A01C0CF
:10098000DE988DE08A95F1F7DA9A8DE08A95F1F795
:10099000DA988DE08A95F1F78AC0AA93A881D8DF0A
:1009A000E881E295E883A881D3DF85E88A95F1F7AD
:1009B0007EC0AA93E881F0E0E456FE4FE081A98171
:1009C000AE0FEBDFE981E093A001E881E093A101A4
:1009D00022960895A2E00E94B808ACE0DEDFA1E014
:1009E0000E94B808E0E0E093A101E093A00108951F
:1009F000AA93A881AA3031F0E091A201A091A001B0
:100A0000AE1760F0E0E0EA93A091A101AF5FA09380
:100A1000A101CFDFA881AA3009F449C0E091A0016B
:100A2000EF5FE093A001D89AA881B7DFD8983FC0C4
:100A3000BA93AA931A93A981BA81ED91A983BA8333
:100A40001E2FE03019F0A12FD3DFF5CF18812396A8
:100A50000895AA93D39AD49AD59AD69AD29AD09A2C
:100A6000D19ADA98D898D998E881E093A201E05811
:100A7000E0939E01E881E054E0939F01A4E1B0E09F
:100A80000E94F2080E94BE080E94BE080E94BE0892
:100A9000A0E25EDF88EC90E00197F1F7A8E27DDF4D
:100AA000A4E07BDFA5E879DFA6E077DF93DF21967E
:100AB0000895BA93AA931A930A93AA81BB811296B6
:100AC0000E944D0A309759F1AA81BB8114960E9469
:100AD0004D0A8F01309761F00230E0E01E0798F078
:100AE000F80131978F01AA81BB811496ED93FC9395
:100AF000AA81BB811296ED91FD913196FE93EE9302
:100B00003197AC81A083AA81BB810E944D0AFF234B
:100B10002AF0ED91FD913196FE93EE9306C0AA81E5
:100B2000BB81EFEFFFEFED93FC93198108812596D0
:100B30000895BA93AA9326970E945A0A10E0AC85AA
:100B4000BD85E0E0F0E0ED93FC93EA89FB89319606
:100B5000EA8BFB8B3197E4912E2FE03009F415C11D
:100B6000E12FE03039F4253211F411E002C00E9487
:100B7000C6080AC1E130A9F4253219F40E94C6085A
:100B800002C112E040E000E02D3211F401E0FCC0AF
:100B90002B3211F44BE2F8C0203211F440E2F4C0E1
:100BA00002C0E23039F450E013E0203311F4006861
:100BB000EBC003C0E33009F0E7C0203310F02A3364
:100BC00008F007C0AAE05A9F502DE22FE0535E0FB5
:100BD000DBC0E22FE33649F40E94CD08E889F989A9
:100BE000A481AA930E94D308CEC0E33741F40E94A7
:100BF000CD080E94D9080E9401071E2F0AC0E037C5
:100C000061F40E94CD080E94D9080E940D071E2F92
:100C1000086002600F7730E034C0E43611F0E93646
:100C200011F4046002C0E53731F4E4E5F0E0EE834E
:100C3000FF8315E00CC0E83511F4086003C0E83705
:100C400009F0A1C0EEE5F0E0EE83FF8314E002FFBF
:100C500014C00E94CD080E94E308AB85AA233AF491
:100C6000EA85FB850E94370AEA87FB874DE2403020
:100C700011F01F5F01C00B7F04C00E94CD080E94CD
:100C8000E30800FD11C0151778F407FF08C002FF44
:100C900004C00B7F242F115001C020E301C020E2CB
:100CA0000E94C6085150EFCF312F01FF17C03030DE
:100CB000A1F003FF06C0EE81FF812591EE83FF8343
:100CC00005C0AE81BF812D91AE83BF830E94C6084F
:100CD000503009F051503150EACF4BC020E3EE8143
:100CE000FF810E94510AE887F987EE81FF813296E1
:100CF000EE83FF83E885F985AA85BB85AE17BF071C
:100D000050F02F5FA885B985EA85FB85EA1BFB0BB0
:100D1000EA87FB87EFCF2A3328F003FF02C0295F61
:100D200001C0295D04FD1AC0213320F4A885B985CE
:100D3000119709F409C0531710F000FF01C013C048
:100D400020E207FF0BC020E3006102FF07C00B7F1A
:100D50004A930E94D308503009F051500E94C608AF
:100D6000503009F051503150A885B985129708F0DC
:100D7000B5CF00FF08C0503031F05150E0E2EA93A7
:100D80000E94D308F8CF10E0E0CEAC85BD850E946C
:100D90004D0A0E94610A64960895FF92F82E2697E4
:100DA0000E945C0A0E94EB08309719F4EFEFFFEF06
:100DB00023C0DE0116960E94330A8D010E94EB08C3
:100DC000EE83FF83E0E0E887E987DE011A960E9460
:100DD000330A0E944D0AFA93EA931A930A93E9E5BB
:100DE000F5E0FA93EA93DE011A96A3DE9F01AE8145
:100DF000BF81E0E0EC93F9010E94630A2A96FF901C
:100E00000895BA93AA93A991B991EE27FF276D91FE
:100E1000662311F03196FBCF0895BA93AA93AA27BF
:100E2000BB27E991F9910590002011F01196FBCFB5
:100E3000FD010895E1E0F0E0EA15FB050895E2E028
:100E4000F0E0EA15FB050895E3E0F0E0EA15FB05A4
:100E50000895E0E0EA93A0E00E94D9040A2C0B2850
:100E60000895E0916C01F0916D010895E0936C019B
:100E7000F0936D010895A0916C01B0916D010895FA
:100E8000ECE8F1E0FA93EA93EAE6F0E0FA93EA9309
:100E9000E8DF0E94480A0E94550A84E00E94CD06BD
:100EA0002896E9DF0E94AA00E0937C01F0937D017F
:100EB0000895E0916E01F0916F010895A0916E0187
:100EC000B0916F010895EEE6F1E0A0E0B0E0A083FC
:100ED000B1830895ECE8F1E0FA93EA93E7E7F0E0F4
:100EE000FA93EA93E6CF0E94480A0E94550A84E0EA
:100EF0000E94CD062896E2CF0E94AA00E0937E01D0
:100F0000F0937F010895A4EBB0E0A083B18308952E
:100F1000ACE8B1E00E941805ECE0EA93A0E00E9482
:100F2000D904AFED0E94F804A4E6B0E00C94F208F6
:100F3000E0917001F09171010895A0917001B0915C
:100F400071010895E0E7F1E0A0E0B0E0A083B18393
:100F50000895ECE8F1E0FA93EA93E4E8F0E0FA931C
:100F6000EA93E6CF0E94480A0E94550A84E00E9454
:100F7000CD062896E2CF0E94AA00E0938001F0936C
:100F800081010895E0917201F09173010895A0919B
:100F90007201B09173010895E2E7F1E0A0E0B0E0E2
:100FA000A083B1830895ECE8F1E0FA93EA93E1E9D4
:100FB000F0E0FA93EA93E6CF0E94480A0E94550AAD
:100FC00084E00E94CD062896E2CF0E94AA00E0931A
:100FD0008201F09383010895E0917401F09175010D
:100FE0000895A0917401B09175010895E4E7F1E0CE
:100FF000A0E0B0E0A083B1830895ECE8F1E0FA93BB
:10100000EA93EEE9F0E0FA93EA93E6CF0E94480A09
:101010000E94550A84E00E94CD062896E2CF0E94E5
:10102000AA00E0938401F09385010895E091760190
:10103000F09177010895A0917601B091770108951C
:10104000E6E7F1E0A0E0B0E0A083B1830895ECE82A
:10105000F1E0FA93EA93EBEAF0E0FA93EA93E6CF51
:101060000E94480A0E94550A84E00E94CD062896F4
:10107000E2CF0E94AA00E0938601F09387010895D1
:10108000E0917801F09179010895A0917801B091F3
:1010900079010895E8E7F1E0A0E0B0E0A083B18332
:1010A0000895ECE8F1E0FA93EA93E8EBF0E0FA93C4
:1010B000EA93E6CF0E94480A0E94550A84E00E9403
:1010C000CD062896E2CF0E94AA00E0938801F09313
:1010D00089010895E0917A01F0917B010895A09132
:1010E0007A01B0917B010895EAE7F1E0A0E0B0E079
:1010F000A083B1830895ECE8F1E0FA93EA93E5EC7C
:10110000F0E0FA93EA93E6CF0E94480A0E94550A5B
:1011100084E00E94CD062896E2CF0E94AA00E093C8
:101120008A01F0938B010895E0917E01F0917F0197
:101130000895E0918001F09181010895E09184018A
:10114000F09185010895E0918601F091870108955D
:10115000E0918A01F0918B010895E52DF070EBBDCF
:10116000042C05280895A0E8BEE3A083B183089568
:101170000E94CD04A3E0B0E00C94F208A0E30E942A
:10118000A80488EC90E00197F1F708952A93AD85C3
:10119000BE85EF85F88909950895E889F98934971E
:1011A000E88BF98B0895AD85BE85EF85F8890995A3
:1011B0000895A889B98914960E944D0AEE83FF8389
:1011C000AE81BF810895A889B98914960E944D0AFD
:1011D000EA87FB870895DE011C960E94330A0E946D
:1011E0004D0A0895109639F080ED97E00197F1F7D8
:1011F000A8951197C9F70895552342F4503811F472
:10120000E0FF04C03196691F791F6BF050E8572743
:1012100011F45F93C8C05F3F31F0660F000C579523
:101220006795752F08955F9300200AF0C8C0C1C06C
:1012300050E8192E1522880F991F9527550F87956D
:1012400050E8072E0522660F771F7527550F679503
:101250000895689401C0E8945F93F2DF703818F045
:101260007F3F08F4A0C056E1571BAAF451955830AF
:101270000EF4593030F0EFEFFFEF6FEF7FE777F9C3
:101280001AC077275523B9F0EE0FFF1F661F771F8F
:101290005A95D1F710C07727583028F0EF2FF62F46
:1012A000672F5850F9CF552331F076956795F7950C
:1012B000E7955A95D1F700200AF4DDD05F910895A3
:1012C000689401C0E894309760407040B1F0002409
:1012D00026F0772312F40094CED0172E7EE1112051
:1012E00032F07A95EE0FFF1F661F111CF9CFEF2F1A
:1012F000F62F612D5F938ADF5F9108954F93AF01C1
:10130000FD01DA01AB01BC01CA01402D012C142EF4
:101310004F910895EA0FFB1F681F0895E095F0951F
:101320006095EF5FFF4F6F4F08955F9381DF9038B7
:1013300039F1703821F1572F591B2BF112F4DEDFF0
:10134000FACF583118F0AA27BB278827583028F041
:10135000AB2FB82F88275850F9CF552329F0869501
:10136000B795A7955A95D9F7502D512572F0D2DF30
:1013700038F46795F795E795739513F420C0BEDFB1
:1013800045DF5F910895D8F7FBCFEA1BFB0B680B95
:1013900051F010F40094C2DF662392F3EE0FFF1FAA
:1013A000661F7A95CBF7EE27FF27662777275F9191
:1013B0000895EFEFFFEF6FE77FEF5F910895EFEF95
:1013C000FFEF6FE77FE75F9108955F9331DF70383C
:1013D00051F3903841F301240894791F23F41CF34E
:1013E00000203AF3ECCF0F921F932F933F934F932C
:1013F000112722279927689FA0018F9F302D410D2B
:10140000591F6B9F300D411D591F8E9F27D0BF9FC5
:1014100025D06A9F23D0BE9F1DD0AF9F1BD0AE9F0B
:10142000110D291F391F491F591FE32FF42F652F55
:10143000522F4F913F912F911F910F9066232AF0C9
:10144000550FEE1FFF1F661F02C073954BF2D4DECF
:101450005F910895100D211D391F02C0200D311D0F
:10146000491F591F08950024AF0DB01D0895F1952F
:10147000E195F0400895F09560957095E195FF4FE6
:101480006F4F7F4F0895EF2FFF27E7FDFFEF089580
:101490006F2F660F660B762F0895ED91FC911197D3
:1014A00008950590F491E02D08957A936A93FA9344
:1014B000EA9308955A934A933A932A931A930A9374
:1014C00008955D814C813B812A81198108810895AD
:00000001FF
