:100000000C9435000C945D000C945D000C945D0024
:100010000C945D000C941F020C945D000C945D0028
:100020000C945D000C945D000C945D000C945D00DC
:100030000C945D000C945D000C945D000C945D00CC
:100040000C94D5010C945D000C94A3010C947D01DB
:100050000C945D000C945D000C945D000C945D00AC
:100060000C945D000C945D00A40311241FBECFEF1F
:10007000D8E0DEBFCDBF11E0A0E0B1E0E0E0F8E005
:1000800002C005900D92A631B107D9F721E0A6E193
:10009000B1E001C01D92AD3DB207E1F710E0C5E34C
:1000A000D0E004C02197FE010E94F303C433D107BE
:1000B000C9F70E94A5020C94FE030C940000CF9295
:1000C000DF92EF92FF920F931F93CF93DF936C0118
:1000D0007A018B01C0E0D0E0CE15DF0589F0D801B0
:1000E0006D918D01D601ED91FC910190F081E02D93
:1000F000C6010995892B11F47E0102C02196ECCF2F
:10010000C701DF91CF911F910F91FF90EF90DF908A
:10011000CF900895089580E090E00895FC01538DFC
:10012000448D252F30E0842F90E0821B930B5417D1
:1001300010F0CF96089501970895FC01918D828D5E
:10014000981761F0828DDF01A80FB11D5D968C912B
:10015000928D9F5F9F73928F90E008958FEF9FEF36
:100160000895FC01918D828D981731F0828DE80FF2
:10017000F11D858D90E008958FEF9FEF0895FC01AC
:10018000918D228D892F90E0805C9F4F821B910979
:100190008F739927089580E491E00E94BF0021E0C9
:1001A000892B09F420E0822F0895FC01848DDF0162
:1001B000A80FB11DA35ABF4F2C91848D90E00196DA
:1001C0008F739927848FA689B7892C93A089B189C9
:1001D0008C9180648C93938D848D981306C00288D3
:1001E000F389E02D80818F7D80830895EF92FF92C7
:1001F0000F931F93CF93DF93EC0181E0888F9B8D4A
:100200008C8D981305C0E889F989808185FD24C00B
:10021000F62E0B8D10E00F5F1F4F0F731127E02E8E
:100220008C8DE8120CC00FB607FCFACFE889F9896B
:10023000808185FFF5CFCE010E94D500F1CF8B8D57
:10024000FE01E80FF11DE35AFF4FF0820B8FEA89A0
:10025000FB898081806207C0EE89FF896083E8891D
:10026000F98980818064808381E090E0DF91CF9183
:100270001F910F91FF90EF900895CF93DF93EC01C2
:10028000888D8823C9F0EA89FB89808185FD05C0B6
:10029000A889B9898C9186FD0FC00FB607FCF5CFF0
:1002A000808185FFF2CFA889B9898C9185FFEDCF38
:1002B000CE010E94D500E7CFDF91CF91089580E075
:1002C00090E0892B29F00E94CB0081110C94000052
:1002D0000895009769F0FC0101900020E9F731973B
:1002E000AF01481B590BBC0180E491E00C945F0006
:1002F00080E090E008950E94F9031F920F920FB6DC
:100300000F9211242F933F934F935F936F937F939B
:100310008F939F93AF93BF93EF93FF9380E491E00C
:100320000E94D500FF91EF91BF91AF919F918F9166
:100330007F916F915F914F913F912F910F900FBEE1
:100340000F901F9018951F920F920FB60F921124C5
:100350002F938F939F93EF93FF93E0915001F09130
:1003600051018081E0915601F091570182FD12C048
:100370009081809159018F5F8F7320915A0182176C
:1003800051F0E0915901F0E0E05CFE4F958F8093D1
:10039000590101C08081FF91EF919F918F912F9121
:1003A0000F900FBE0F901F9018951F920F920FB6CF
:1003B0000F9211242F933F938F939F93AF93BF93EB
:1003C0008091280190912901A0912A01B0912B01DF
:1003D0003091270123E0230F2D3720F40196A11D32
:1003E000B11D05C026E8230F0296A11DB11D209363
:1003F00027018093280190932901A0932A01B093AB
:100400002B018091230190912401A0912501B091AD
:1004100026010196A11DB11D809323019093240113
:10042000A0932501B0932601BF91AF919F918F9129
:100430003F912F910F900FBE0F901F9018951F9214
:100440000F920FB60F9211242F933F934F935F9308
:100450008F939F93AF93BF93EF93FF933FB7F8941E
:100460008091230190912401A0912501B091260152
:1004700026B5A89B05C02F3F19F00196A11DB11DFF
:100480003FBFBA2FA92F982F8827820F911DA11D3A
:10049000B11DE2E0880F991FAA1FBB1FEA95D1F793
:1004A00080931F0190932001A0932101B09322011A
:1004B00020911E014C9B0EC0211138C021E02093D9
:1004C0001E0180931A0190931B01A0931C01B0930D
:1004D0001D012CC0213051F510921E0120911801F0
:1004E000309119012F5F3F4F30931901209318016C
:1004F00040911A0150911B01841B950B9093170199
:1005000080931601813D47E094074CF090932D01B4
:1005100080932C01109219011092180107C0220F2C
:10052000331FF901E45DFE4F91838083FF91EF91CA
:10053000BF91AF919F918F915F914F913F912F917B
:100540000F900FBE0F901F901895CF93DF93CDB7EC
:10055000DEB7A1970FB6F894DEBF0FBECDBF78947B
:1005600084B5826084BD84B5816084BD85B58260B8
:1005700085BD85B5816085BD80916E008160809369
:100580006E001092810080918100826080938100D2
:1005900080918100816080938100809180008160E2
:1005A000809380008091B10084608093B10080913D
:1005B000B00081608093B00080917A008460809365
:1005C0007A0080917A00826080937A0080917A002C
:1005D000816080937A0080917A00806880937A00AD
:1005E0001092C100809168008460809368008091BF
:1005F0006D00806180936D00E0915001F091510198
:1006000082E08083E0914C01F0914D011082E091F5
:100610004E01F0914F018FEC808310925801E091D0
:100620005401F091550186E08083E0915201F091F0
:100630005301808180618083E0915201F0915301E8
:10064000808188608083E0915201F0915301808124
:1006500080688083E0915201F091530180818F7D09
:10066000808301E010E03AE0832E912CA12CB12C84
:1006700010933F0100933E0180913E0190913F0114
:10068000893091050CF059C0880F991FFC01E45D79
:10069000FE4FC080D1800D2C000CEE08FF08F7FE45
:1006A00026C0E0914001F09141010190F081E02DE0
:1006B0006DE280E491E0099522273327A9012C19E6
:1006C0003D094E095F0919A2CE0181967C01CA013C
:1006D000B901A50194010E94D103605DF701629305
:1006E0007F01211531054105510589F715C0A70185
:1006F000960119A2CE0181967C01CA01B901A5011A
:1007000094010E94D103605DF70162937F0121157E
:1007100031054105510589F7C7010E94690182E150
:1007200091E00E94690180913E0190913F01019604
:1007300090933F0180933E019FCF84E191E00E941E
:1007400069010E945F0194CFE0E4F1E0138212821C
:1007500088EE93E0A0E0B0E084839583A683B7831E
:1007600084E091E09183808385EC90E09587848795
:1007700084EC90E09787868780EC90E0918B808B6B
:1007800081EC90E0938B828B82EC90E0958B848B54
:1007900086EC90E0978B868B118E128E138E148EC2
:1007A0000895A1E21A2EAA1BBB1BFD010DC0AA1FB2
:1007B000BB1FEE1FFF1FA217B307E407F50720F0CA
:1007C000A21BB30BE40BF50B661F771F881F991F45
:1007D0001A9469F760957095809590959B01AC018E
:1007E000BD01CF010895EE0FFF1F0590F491E02D9C
:1007F000099481E090E0F8940C94FE03F894FFCF04
:1008000000000000F6005F008E003D01BF009D006B
:06081000B10009000A001E
:00000001FF
